:100000000C942A000C943F000C943F000C943F0089
:100010000C943F000C943F000C943F000C943F0064
:100020000C943F000C943F000C943F000C943F0054
:100030000C943F000C943F000C943F000C943F0044
:100040000C943F000C943F000C943F000C943F0034
:100050000C943F0011241FBECFE5D8E0DEBFCDBF1A
:1000600010E0A0E6B0E0E6EAF1E002C005900D92F3
:10007000A637B107D9F70E9441000C94D1000C9427
:100080000000DF93CF930F92CDB7DEB70E945300ED
:1000900080E690E00E94B3000E949D0089838981E0
:1000A0000E947800F9CFDF93CF9300D0CDB7DEB7B1
:1000B00087E690E09A83898389E290E02981FC01B8
:1000C000208380E490E029813A81232F3327FC01AB
:1000D00020838AE290E028E1FC01208380E490E024
:1000E00026E8FC0120830F900F90CF91DF910895B7
:1000F000DF93CF930F92CDB7DEB7898300008BE2F9
:1001000090E0FC018081882F90E0807290700097D1
:10011000B1F38CE290E02981FC01208300008BE2A6
:1001200090E0FC018081882F90E0807490700097AF
:10013000B1F30F90CF91DF910895DF93CF930F929A
:10014000CDB7DEB700008BE290E0FC018081882310
:10015000D4F78CE290E0FC018081898389810F9043
:10016000CF91DF910895DF93CF9300D0CDB7DEB765
:100170009A8389830BC089819A81FC0180810E94C6
:10018000780089819A8101969A83898389819A81ED
:10019000FC018081882379F70F900F90CF91DF9138
:0601A0000895F894FFCF62
:1001A600456E746572207468652063686172616368
:0601B6007465720A0D00E1
:00000001FF
